{
  "contractName": "BettingContract",
  "abi": [
    {
      "constant": true,
      "inputs": [],
      "name": "gamblerB",
      "outputs": [
        {
          "name": "",
          "type": "address"
        }
      ],
      "payable": false,
      "type": "function"
    },
    {
      "constant": true,
      "inputs": [],
      "name": "gamblerA",
      "outputs": [
        {
          "name": "",
          "type": "address"
        }
      ],
      "payable": false,
      "type": "function"
    },
    {
      "constant": false,
      "inputs": [
        {
          "name": "withdrawAmount",
          "type": "uint256"
        }
      ],
      "name": "withdraw",
      "outputs": [
        {
          "name": "remainingBal",
          "type": "uint256"
        }
      ],
      "payable": false,
      "type": "function"
    },
    {
      "constant": true,
      "inputs": [],
      "name": "checkOutcomes",
      "outputs": [
        {
          "name": "",
          "type": "uint256[]"
        }
      ],
      "payable": false,
      "type": "function"
    },
    {
      "constant": true,
      "inputs": [],
      "name": "checkWinnings",
      "outputs": [
        {
          "name": "",
          "type": "uint256"
        }
      ],
      "payable": false,
      "type": "function"
    },
    {
      "constant": false,
      "inputs": [
        {
          "name": "_outcome",
          "type": "uint256"
        }
      ],
      "name": "makeBet",
      "outputs": [
        {
          "name": "",
          "type": "bool"
        }
      ],
      "payable": true,
      "type": "function"
    },
    {
      "constant": true,
      "inputs": [],
      "name": "oracle",
      "outputs": [
        {
          "name": "",
          "type": "address"
        }
      ],
      "payable": false,
      "type": "function"
    },
    {
      "constant": false,
      "inputs": [
        {
          "name": "_outcome",
          "type": "uint256"
        }
      ],
      "name": "makeDecision",
      "outputs": [],
      "payable": false,
      "type": "function"
    },
    {
      "constant": false,
      "inputs": [
        {
          "name": "_oracle",
          "type": "address"
        }
      ],
      "name": "chooseOracle",
      "outputs": [
        {
          "name": "",
          "type": "address"
        }
      ],
      "payable": false,
      "type": "function"
    },
    {
      "inputs": [
        {
          "name": "_outcomes",
          "type": "uint256[]"
        }
      ],
      "payable": false,
      "type": "constructor"
    },
    {
      "payable": false,
      "type": "fallback"
    },
    {
      "anonymous": false,
      "inputs": [
        {
          "indexed": false,
          "name": "gambler",
          "type": "address"
        }
      ],
      "name": "BetMade",
      "type": "event"
    },
    {
      "anonymous": false,
      "inputs": [],
      "name": "BetClosed",
      "type": "event"
    }
  ],
  "bytecode": "0x6060604052341561000f57600080fd5b6040516108f33803806108f38339810160405280805190910190505b60008054600160a060020a03191633600160a060020a03161790556004818051610059929160200190610061565b505b506100ce565b82805482825590600052602060002090810192821561009c579160200282015b8281111561009c578251825591602001919060010190610081565b5b506100a99291506100ad565b5090565b6100cb91905b808211156100a957600081556001016100b3565b5090565b90565b610816806100dd6000396000f300606060405236156100965763ffffffff7c0100000000000000000000000000000000000000000000000000000000600035041663113023ca81146100a95780631def0573146100d85780632e1a7d4d146101075780632f2786681461012f5780635ee715d614610196578063718cc769146101bb5780637dc0d1d0146101da57806380c1367e14610209578063d0aa7e2514610221575b34156100a157600080fd5b5b600080fd5b005b34156100b457600080fd5b6100bc61025c565b604051600160a060020a03909116815260200160405180910390f35b34156100e357600080fd5b6100bc61026b565b604051600160a060020a03909116815260200160405180910390f35b341561011257600080fd5b61011d60043561027a565b60405190815260200160405180910390f35b341561013a57600080fd5b6101426102f9565b60405160208082528190810183818151815260200191508051906020019060200280838360005b838110156101825780820151818401525b602001610169565b505050509050019250505060405180910390f35b34156101a157600080fd5b61011d610358565b60405190815260200160405180910390f35b6101c6600435610375565b604051901515815260200160405180910390f35b34156101e557600080fd5b6100bc610507565b604051600160a060020a03909116815260200160405180910390f35b341561021457600080fd5b6100a7600435610516565b005b341561022c57600080fd5b6100bc600160a060020a0360043516610785565b604051600160a060020a03909116815260200160405180910390f35b600254600160a060020a031681565b600154600160a060020a031681565b600160a060020a033316600090815260066020526040812054829010156102a057600080fd5b600160a060020a03331682156108fc0283604051600060405180830381858888f1935050505015156102d157600080fd5b50600160a060020a03331660009081526006602052604090208054829003908190555b919050565b6103016107d8565b600480548060200260200160405190810160405280929190818152602001828054801561034d57602002820191906000526020600020905b815481526020019060010190808311610339575b505050505090505b90565b600160a060020a0333166000908152600660205260409020545b90565b6000805433600160a060020a039081169116148015906103a4575060035433600160a060020a03908116911614155b15156103af57600080fd5b600154600160a060020a031615156103ee576001805473ffffffffffffffffffffffffffffffffffffffff191633600160a060020a0316179055610435565b600254600160a060020a0316151561042d576002805473ffffffffffffffffffffffffffffffffffffffff191633600160a060020a0316179055610435565b5060006102f4565b5b600160a060020a03331660009081526005602052604090206002015460ff1615156104fe576060604051908101604090815283825234602080840191909152600182840152600160a060020a033316600090815260059091522081518155602082015181600101556040820151600291909101805460ff1916911515919091179055507fdcd2da66e8984bfcbbe0c67e276d4409dc4f49b29be35637f00eb421e60c010f33604051600160a060020a03909116815260200160405180910390a15060016102f4565b5060005b919050565b600354600160a060020a031681565b600354600090819033600160a060020a0390811691161461053657600080fd5b600154600160a060020a031660009081526005602052604090206002015460ff16151561056257600080fd5b60028054600160a060020a03166000908152600560205260409020015460ff16151561058d57600080fd5b5050600154600160a060020a03166000908152600560205260409020548082811480156105b957508281145b156106515760018054600160a060020a03166000818152600560205260409081902090920154909181156108fc02919051600060405180830381858888f19350505050151561060757600080fd5b600254600160a060020a0316600081815260056020526040908190206001015480156108fc029151600060405180830381858888f19350505050151561064c57600080fd5b61074f565b828214156106a057600254600160a060020a039081166000908152600560209081526040808320600190810154815490951684528184200154600690925290912080549190920101905561074f565b828114156106f157600254600160a060020a0390811660008181526005602090815260408083206001908101548154909616845281842001549383526006909152902080549190920101905561074f565b600354600254600160a060020a039081166000908152600560205260408082206001908101548154851684529282902001549290931692910180156108fc029151600060405180830381858888f19350505050151561074f57600080fd5b5b5b5b7f077212d4d7a1f32f5a1799a3b05e05b15f3ad33584b11615f0b68d9c4c03fd6260405160405180910390a15b5b505050565b6000805433600160a060020a039081169116146107a157600080fd5b506003805473ffffffffffffffffffffffffffffffffffffffff1916600160a060020a038381169190911791829055165b5b919050565b602060405190810160405260008152905600a165627a7a72305820aab2b6284e78e2a871916f8d17c05246c055d5501da7a2368207df5363c92f110029",
  "source": "pragma solidity ^0.4.15;\n\ncontract BettingContract {\n\t/* Standard state variables */\n\taddress owner;\n\taddress public gamblerA;\n\taddress public gamblerB;\n\taddress public oracle;\n\tuint[] outcomes;\n\n\t/* Structs are custom data structures with self-defined parameters */\n\tstruct Bet {\n\t\tuint outcome;\n\t\tuint amount;\n\t\tbool initialized;\n\t}\n\n\t/* Keep track of every gambler's bet */\n\tmapping (address => Bet) bets;\n\t/* Keep track of every player's winnings (if any) */\n\tmapping (address => uint) winnings;\n\n\t/* Add any events you think are necessary */\n\tevent BetMade(address gambler);\n\tevent BetClosed();\n\n\t/* Uh Oh, what are these? */\n\tmodifier OwnerOnly() {\n\t\trequire (msg.sender == owner);\n\t\t\t_;\n\t}\n\tmodifier OracleOnly() {\n\t\trequire (msg.sender == oracle);\n\t\t\t_;\n\t}\n\n\t/* Constructor function, where owner and outcomes are set */\n\tfunction BettingContract(uint[] _outcomes) {\n\t\towner = msg.sender;\n\t\toutcomes = _outcomes;\n\t}\n\n\t/* Owner chooses their trusted Oracle */\n\tfunction chooseOracle(address _oracle) OwnerOnly() returns (address) {\n\t\toracle = _oracle;\n\t\treturn oracle;\n\t}\n\n\t/* Gamblers place their bets, preferably after calling checkOutcomes */\n\tfunction makeBet(uint _outcome) payable returns (bool) {\n\t\trequire (msg.sender != owner && msg.sender != oracle);\n\t\t\n\t\tif (gamblerA == 0) {\n\t\t\tgamblerA = msg.sender;\n\t\t\t\n\t\t} else if (gamblerB == 0) {\n\t\t\tgamblerB = msg.sender;\n\t\t\t\n\t\t} else {\n\t\t\treturn false;\n\t\t}\n\n\t\tif (!bets[msg.sender].initialized) {\n\t\t\tbets[msg.sender] = Bet(_outcome, msg.value, true);\n\t\t\tBetMade(msg.sender);\n\t\t\treturn true;\n\t\t}\n\t\treturn false;\n\t}\n\n\t/* The oracle chooses which outcome wins */\n\tfunction makeDecision(uint _outcome) OracleOnly() {\n\t\trequire(bets[gamblerA].initialized);\n\t\trequire(bets[gamblerB].initialized);\n\t\tuint ABet = bets[gamblerA].outcome;\n\t\tuint BBet = bets[gamblerA].outcome;\n\t\t\n\t\tif (ABet == _outcome && BBet == _outcome) {\n\t\t    gamblerA.transfer(bets[gamblerA].amount);\n\t\t    gamblerB.transfer(bets[gamblerB].amount);\n\t\t    \n\t\t} else if (ABet == _outcome) {\n\t\t    winnings[gamblerA] += (bets[gamblerA].amount + bets[gamblerB].amount);\n\t\t    \n\t\t} else if (BBet == _outcome) {\n\t\t    winnings[gamblerB] += (bets[gamblerA].amount + bets[gamblerB].amount);\n\t\t    \n\t\t} else {\n\t\t    oracle.transfer(bets[gamblerA].amount + bets[gamblerB].amount);\n\t\t}\n\t\tBetClosed();\n\n\n\t}\n\n\t/* Allow anyone to withdraw their winnings safely (if they have enough) */\n\tfunction withdraw(uint withdrawAmount) returns (uint remainingBal) {\n\t    require(winnings[msg.sender] >= withdrawAmount);\n\t    msg.sender.transfer(withdrawAmount);\n\t    winnings[msg.sender] -= withdrawAmount;\n\t    return winnings[msg.sender];\n\t}\n\t\n\t/* Allow anyone to check the outcomes they can bet on */\n\tfunction checkOutcomes() constant returns (uint[]) {\n\t\treturn outcomes;\n\t}\n\t\n\t/* Allow anyone to check if they won any bets */\n\tfunction checkWinnings() constant returns(uint) {\n\t\treturn winnings[msg.sender];\n\t}\n\n\t/* Call delete() to reset certain state variables. Which ones? That's upto you to decide */\n\tfunction contractReset() private {\n\t\tdelete bets[gamblerA];\n\t\tdelete bets[gamblerB];\n\t\tdelete gamblerB;\n\t\tdelete gamblerA;\n\t}\n\n\t/* Fallback function */\n\tfunction() {\n\t\trevert();\n\t}\n}\n",
  "sourcePath": "/Users/shreysamdani/GoogleDrive/fall 2017/BlockchainDevDecal/hw2/ex2/contracts/BettingContract.sol",
  "schemaVersion": "1.0.0",
  "updatedAt": "2017-09-23T01:03:07.216Z"
}