{
  "contractName": "BadAuction",
  "abi": [
    {
      "constant": true,
      "inputs": [],
      "name": "getHighestBidder",
      "outputs": [
        {
          "name": "",
          "type": "address"
        }
      ],
      "payable": false,
      "type": "function"
    },
    {
      "constant": false,
      "inputs": [],
      "name": "bid",
      "outputs": [
        {
          "name": "",
          "type": "bool"
        }
      ],
      "payable": true,
      "type": "function"
    },
    {
      "constant": true,
      "inputs": [],
      "name": "getHighestBid",
      "outputs": [
        {
          "name": "",
          "type": "uint256"
        }
      ],
      "payable": false,
      "type": "function"
    },
    {
      "payable": false,
      "type": "constructor",
      "inputs": []
    },
    {
      "payable": true,
      "type": "fallback"
    }
  ],
  "bytecode": "0x6060604052341561000f57600080fd5b5b600060018190558054600160a060020a03191690555b5b61020b806100366000396000f300606060405236156100535763ffffffff7c01000000000000000000000000000000000000000000000000000000006000350416623495a4811461005b5780631998aeef1461008a5780634979440a146100a6575b5b600080fd5b005b341561006657600080fd5b61006e6100cb565b604051600160a060020a03909116815260200160405180910390f35b6100926100db565b604051901515815260200160405180910390f35b34156100b157600080fd5b6100b96101d8565b60405190815260200160405180910390f35b600054600160a060020a03165b90565b600154600090341161012157600160a060020a0333163480156108fc0290604051600060405180830381858888f19350505050151561011957600080fd5b5060006100d8565b600054600160a060020a0316158015906101665750600054600154600160a060020a039091169080156108fc0290604051600060405180830381858888f19350505050155b156101a557600160a060020a0333163480156108fc0290604051600060405180830381858888f19350505050151561011957600080fd5b5060006100d8565b503460019081556000805473ffffffffffffffffffffffffffffffffffffffff191633600160a060020a03161790555b90565b6001545b905600a165627a7a72305820d992d9099a009b81d119447bdfdc01cd9bcb45ffb825f05aa9d4ab1b83034c630029",
  "source": "pragma solidity ^0.4.15;\n\nimport \"./AuctionInterface.sol\";\n\n/** @title BadAuction */\ncontract BadAuction is AuctionInterface {\n\t/* Bid function, vulnerable to attack\n\t * Must return true on successful send and/or bid,\n\t * bidder reassignment\n\t * Must return false on failure and send people\n\t * their funds back\n\t */\n\n\tfunction BadAuction() {\n\t\thighestBid = 0;\n\t\thighestBidder = 0;\n\t} \n\n\n\t \n\tfunction bid() payable external returns (bool) {\n\t\tif (msg.value <= highestBid) {\n\t\t\tmsg.sender.transfer(msg.value);\n\t\t\treturn false;\n\t\t}\t\t\t\n\n\t\tif (highestBidder != 0 && !highestBidder.send(highestBid)) {\n\t\t\tmsg.sender.transfer(msg.value);\n\t\t\treturn false;\n\t\t}\n\n\t\thighestBid = msg.value;\n\t\thighestBidder = msg.sender;\n\t\treturn true;\n\t}\n\n\t/* Give people their funds back */\n\tfunction () payable {\n\t\t// YOUR CODE HERE\n\t\tthrow;\n\t}\n}\n",
  "sourcePath": "/Users/shreysamdani/GoogleDrive/fall 2017/BlockchainDevDecal/hw3/contracts/BadAuction.sol",
  "schemaVersion": "1.0.0",
  "updatedAt": "2017-10-12T23:46:08.090Z"
}