{
  "contractName": "GoodAuction",
  "abi": [
    {
      "constant": true,
      "inputs": [],
      "name": "getHighestBidder",
      "outputs": [
        {
          "name": "",
          "type": "address"
        }
      ],
      "payable": false,
      "type": "function"
    },
    {
      "constant": false,
      "inputs": [],
      "name": "withdrawRefund",
      "outputs": [
        {
          "name": "",
          "type": "bool"
        }
      ],
      "payable": false,
      "type": "function"
    },
    {
      "constant": false,
      "inputs": [],
      "name": "bid",
      "outputs": [
        {
          "name": "",
          "type": "bool"
        }
      ],
      "payable": true,
      "type": "function"
    },
    {
      "constant": true,
      "inputs": [],
      "name": "getHighestBid",
      "outputs": [
        {
          "name": "",
          "type": "uint256"
        }
      ],
      "payable": false,
      "type": "function"
    },
    {
      "constant": true,
      "inputs": [],
      "name": "getMyBalance",
      "outputs": [
        {
          "name": "",
          "type": "uint256"
        }
      ],
      "payable": false,
      "type": "function"
    },
    {
      "payable": false,
      "type": "constructor",
      "inputs": []
    },
    {
      "payable": true,
      "type": "fallback"
    }
  ],
  "bytecode": "0x6060604052341561000f57600080fd5b5b60008054600160a060020a03191681556001555b5b610293806100346000396000f300606060405236156100695763ffffffff7c01000000000000000000000000000000000000000000000000000000006000350416623495a48114610071578063110f8874146100a05780631998aeef146100c75780634979440a146100e35780634c73890914610108575b5b600080fd5b005b341561007c57600080fd5b61008461012d565b604051600160a060020a03909116815260200160405180910390f35b34156100ab57600080fd5b6100b361013d565b604051901515815260200160405180910390f35b6100b36101ac565b604051901515815260200160405180910390f35b34156100ee57600080fd5b6100f6610243565b60405190815260200160405180910390f35b341561011357600080fd5b6100f661024a565b60405190815260200160405180910390f35b600054600160a060020a03165b90565b600160a060020a03331660008181526002602052604080822080549083905591929082156108fc0290839051600060405180830381858888f1935050505015156101a357600160a060020a033316600090815260026020526040812082905591506101a8565b600191505b5090565b60015460009034116101dc5750600160a060020a033316600090815260026020526040812080543401905561013a565b600054600160a060020a0316156102105760015460008054600160a060020a03168152600260205260409020805490910190555b506000805473ffffffffffffffffffffffffffffffffffffffff191633600160a060020a03161790553460019081555b90565b6001545b90565b600160a060020a0333166000908152600260205260409020545b905600a165627a7a72305820e8bb178ca74981c709b699e6d2c3b21e8389291c12d2f1237798e758788e58ed0029",
  "source": "pragma solidity ^0.4.15;\n\nimport \"./AuctionInterface.sol\";\n\n/** @title GoodAuction */\ncontract GoodAuction is AuctionInterface {\n\t/* New data structure, keeps track of refunds owed to ex-highest bidders */\n\tmapping(address => uint) refunds;\n\n\tfunction GoodAuction() {\n\t\thighestBidder = 0;\n\t\thighestBid = 0;\n\t}\n\n\t/* Bid function, shifts to push paradigm\n\t * Must return true on successful send and/or bid, bidder\n\t * reassignment\n\t * Must return false on failure and allow people to\n\t * retrieve their funds\n\t */\n\tfunction bid() payable external returns(bool) {\n\t\t// YOUR CODE HERE\n\t\tif (msg.value <= highestBid) {\n\t\t\trefunds[msg.sender] += msg.value;\n\t\t\treturn false;\n\t\t}\n\n\t\tif (highestBidder != 0) {\n\t\t\trefunds[highestBidder] += highestBid; \n\t\t}\n\n\t\thighestBidder = msg.sender;\n\t\thighestBid = msg.value;\n\t\treturn true;\n\t}\n\n\t/* New withdraw function, shifts to push paradigm */\n\tfunction withdrawRefund() external returns(bool) {\n\n\t\tuint refund = refunds[msg.sender];\n\t\trefunds[msg.sender] = 0;\n\n\t\tif (!msg.sender.send(refund)) {\n\t\t\trefunds[msg.sender] = refund;\n\t\t\treturn false; \n\t\t}\n\t\treturn true;\n\n\t}\n\n\t/* Allow users to check the amount they can withdraw */\n\tfunction getMyBalance() constant external returns(uint) {\n\t\treturn refunds[msg.sender];\n\t}\n\n\t/* Give people their funds back */\n\tfunction () payable {\n\t\tthrow;\n\t}\n}\n",
  "sourcePath": "/Users/shreysamdani/GoogleDrive/fall 2017/BlockchainDevDecal/hw3/contracts/GoodAuction.sol",
  "schemaVersion": "1.0.0",
  "updatedAt": "2017-10-12T23:51:49.403Z"
}